{
  "contractName": "Farm",
  "abi": [
    {
      "inputs": [
        {
          "internalType": "contract Token",
          "name": "_token",
          "type": "address"
        }
      ],
      "stateMutability": "nonpayable",
      "type": "constructor"
    },
    {
      "anonymous": false,
      "inputs": [
        {
          "indexed": true,
          "internalType": "address",
          "name": "_address",
          "type": "address"
        }
      ],
      "name": "FarmCreated",
      "type": "event"
    },
    {
      "anonymous": false,
      "inputs": [
        {
          "indexed": true,
          "internalType": "address",
          "name": "_address",
          "type": "address"
        }
      ],
      "name": "FarmSynced",
      "type": "event"
    },
    {
      "stateMutability": "payable",
      "type": "receive",
      "payable": true
    },
    {
      "inputs": [
        {
          "internalType": "address payable",
          "name": "_charity",
          "type": "address"
        }
      ],
      "name": "createFarm",
      "outputs": [],
      "stateMutability": "payable",
      "type": "function",
      "payable": true
    },
    {
      "inputs": [],
      "name": "getLand",
      "outputs": [
        {
          "components": [
            {
              "internalType": "enum Farm.Fruit",
              "name": "fruit",
              "type": "uint8"
            },
            {
              "internalType": "uint256",
              "name": "createdAt",
              "type": "uint256"
            }
          ],
          "internalType": "struct Farm.Square[]",
          "name": "",
          "type": "tuple[]"
        }
      ],
      "stateMutability": "view",
      "type": "function",
      "constant": true
    },
    {
      "inputs": [
        {
          "components": [
            {
              "internalType": "enum Farm.Action",
              "name": "action",
              "type": "uint8"
            },
            {
              "internalType": "enum Farm.Fruit",
              "name": "fruit",
              "type": "uint8"
            },
            {
              "internalType": "uint256",
              "name": "landIndex",
              "type": "uint256"
            },
            {
              "internalType": "uint256",
              "name": "createdAt",
              "type": "uint256"
            }
          ],
          "internalType": "struct Farm.Event[]",
          "name": "_events",
          "type": "tuple[]"
        }
      ],
      "name": "sync",
      "outputs": [
        {
          "components": [
            {
              "components": [
                {
                  "internalType": "enum Farm.Fruit",
                  "name": "fruit",
                  "type": "uint8"
                },
                {
                  "internalType": "uint256",
                  "name": "createdAt",
                  "type": "uint256"
                }
              ],
              "internalType": "struct Farm.Square[]",
              "name": "land",
              "type": "tuple[]"
            },
            {
              "internalType": "uint256",
              "name": "balance",
              "type": "uint256"
            }
          ],
          "internalType": "struct Farm.Farm",
          "name": "",
          "type": "tuple"
        }
      ],
      "stateMutability": "nonpayable",
      "type": "function"
    },
    {
      "inputs": [],
      "name": "levelUp",
      "outputs": [],
      "stateMutability": "nonpayable",
      "type": "function"
    },
    {
      "inputs": [
        {
          "internalType": "uint256",
          "name": "price",
          "type": "uint256"
        }
      ],
      "name": "getMarketPrice",
      "outputs": [
        {
          "internalType": "uint256",
          "name": "conversion",
          "type": "uint256"
        }
      ],
      "stateMutability": "view",
      "type": "function",
      "constant": true
    }
  ],
  "bytecode": "0x60806040526107086003553480156200001757600080fd5b50604051620033883803806200338883398181016040528101906200003d91906200009b565b806000806101000a81548173ffffffffffffffffffffffffffffffffffffffff021916908373ffffffffffffffffffffffffffffffffffffffff1602179055505062000129565b60008151905062000095816200010f565b92915050565b600060208284031215620000ae57600080fd5b6000620000be8482850162000084565b91505092915050565b6000620000d482620000ef565b9050919050565b6000620000e882620000c7565b9050919050565b600073ffffffffffffffffffffffffffffffffffffffff82169050919050565b6200011a81620000db565b81146200012657600080fd5b50565b61324f80620001396000396000f3fe60806040526004361061004e5760003560e01c8063061278c01461005a5780634ea1ecf9146100765780635690314c1461008d5780638928378e146100b8578063d53f9c9b146100f557610055565b3661005557005b600080fd5b610074600480360381019061006f9190612703565b610132565b005b34801561008257600080fd5b5061008b610770565b005b34801561009957600080fd5b506100a2610c4c565b6040516100af9190612dcf565b60405180910390f35b3480156100c457600080fd5b506100df60048036038101906100da919061276d565b610d1f565b6040516100ec9190612ff3565b60405180910390f35b34801561010157600080fd5b5061011c6004803603810190610117919061272c565b610d47565b6040516101299190612fd1565b60405180910390f35b6000600260003373ffffffffffffffffffffffffffffffffffffffff1673ffffffffffffffffffffffffffffffffffffffff16815260200190815260200160002054146101b4576040517f08c379a00000000000000000000000000000000000000000000000000000000081526004016101ab90612e11565b60405180910390fd5b60008060009054906101000a900473ffffffffffffffffffffffffffffffffffffffff1673ffffffffffffffffffffffffffffffffffffffff1663313ce5676040518163ffffffff1660e01b815260040160206040518083038186803b15801561021d57600080fd5b505afa158015610231573d6000803e3d6000fd5b505050506040513d601f19601f8201168201806040525081019061025591906127bf565b60ff169050606481600a0a6005028161026a57fe5b043410156102ad576040517f08c379a00000000000000000000000000000000000000000000000000000000081526004016102a490612f11565b60405180910390fd5b73276ca95dbbb0f1beb6919317ab03c885fc10ee6e73ffffffffffffffffffffffffffffffffffffffff168273ffffffffffffffffffffffffffffffffffffffff16148061033a575073d3f81260a44a1df7a7269cf66abd9c7e4f8cdcd173ffffffffffffffffffffffffffffffffffffffff168273ffffffffffffffffffffffffffffffffffffffff16145b806103845750733c8cb169281196737c493affa8f49a9d823bb9c573ffffffffffffffffffffffffffffffffffffffff168273ffffffffffffffffffffffffffffffffffffffff16145b6103c3576040517f08c379a00000000000000000000000000000000000000000000000000000000081526004016103ba90612f51565b60405180910390fd5b6000600160003373ffffffffffffffffffffffffffffffffffffffff1673ffffffffffffffffffffffffffffffffffffffff1681526020019081526020016000209050600060405180604001604052806000600781111561042057fe5b815260200160008152509050600060405180604001604052806001600781111561044657fe5b8152602001600081525090508282908060018154018082558091505060019003906000526020600020906002020160009091909190915060008201518160000160006101000a81548160ff021916908360078111156104a157fe5b02179055506020820151816001015550508281908060018154018082558091505060019003906000526020600020906002020160009091909190915060008201518160000160006101000a81548160ff0219169083600781111561050157fe5b02179055506020820151816001015550508281908060018154018082558091505060019003906000526020600020906002020160009091909190915060008201518160000160006101000a81548160ff0219169083600781111561056157fe5b02179055506020820151816001015550508281908060018154018082558091505060019003906000526020600020906002020160009091909190915060008201518160000160006101000a81548160ff021916908360078111156105c157fe5b02179055506020820151816001015550508282908060018154018082558091505060019003906000526020600020906002020160009091909190915060008201518160000160006101000a81548160ff0219169083600781111561062157fe5b021790555060208201518160010155505042600260003373ffffffffffffffffffffffffffffffffffffffff1673ffffffffffffffffffffffffffffffffffffffff168152602001908152602001600020819055506000808673ffffffffffffffffffffffffffffffffffffffff163460405161069d90612d4d565b60006040518083038185875af1925050503d80600081146106da576040519150601f19603f3d011682016040523d82523d6000602084013e6106df565b606091505b509150915081610724576040517f08c379a000000000000000000000000000000000000000000000000000000000815260040161071b90612e91565b60405180910390fd5b3373ffffffffffffffffffffffffffffffffffffffff167f46963f16723a084f2199eb74021bd97647aa6c8960612a9a031ce509d40d4ca760405160405180910390a250505050505050565b600061077a61111e565b116107ba576040517f08c379a00000000000000000000000000000000000000000000000000000000081526004016107b190612fb1565b60405180910390fd5b6011600160003373ffffffffffffffffffffffffffffffffffffffff1673ffffffffffffffffffffffffffffffffffffffff168152602001908152602001600020805490501115610840576040517f08c379a000000000000000000000000000000000000000000000000000000000815260040161083790612e71565b60405180910390fd5b6000600160003373ffffffffffffffffffffffffffffffffffffffff1673ffffffffffffffffffffffffffffffffffffffff168152602001908152602001600020905060006108928280549050611165565b9050600061089f82610d1f565b905060008060009054906101000a900473ffffffffffffffffffffffffffffffffffffffff1673ffffffffffffffffffffffffffffffffffffffff166370a08231336040518263ffffffff1660e01b81526004016108fd9190612d62565b60206040518083038186803b15801561091557600080fd5b505afa158015610929573d6000803e3d6000fd5b505050506040513d601f19601f8201168201806040525081019061094d9190612796565b905081811015610992576040517f08c379a000000000000000000000000000000000000000000000000000000000815260040161098990612df1565b60405180910390fd5b60008054906101000a900473ffffffffffffffffffffffffffffffffffffffff1673ffffffffffffffffffffffffffffffffffffffff16639dc29fac33846040518363ffffffff1660e01b81526004016109ed929190612d7d565b600060405180830381600087803b158015610a0757600080fd5b505af1158015610a1b573d6000803e3d6000fd5b505050506000610a3560648461126290919063ffffffff16565b905060008054906101000a900473ffffffffffffffffffffffffffffffffffffffff1673ffffffffffffffffffffffffffffffffffffffff166340c10f1960008054906101000a900473ffffffffffffffffffffffffffffffffffffffff1673ffffffffffffffffffffffffffffffffffffffff1663893d20e86040518163ffffffff1660e01b815260040160206040518083038186803b158015610ad957600080fd5b505afa158015610aed573d6000803e3d6000fd5b505050506040513d601f19601f82011682018060405250810190610b1191906126da565b836040518363ffffffff1660e01b8152600401610b2f929190612da6565b600060405180830381600087803b158015610b4957600080fd5b505af1158015610b5d573d6000803e3d6000fd5b505050506000604051806040016040528060016007811115610b7b57fe5b81526020016000815250905060005b6003811015610c00578682908060018154018082558091505060019003906000526020600020906002020160009091909190915060008201518160000160006101000a81548160ff02191690836007811115610be257fe5b02179055506020820151816001015550508080600101915050610b8a565b503373ffffffffffffffffffffffffffffffffffffffff167fbe35fe23c13a419d565edccb8c8bdedc160c5b9a82873e431b545080d6f3c68860405160405180910390a2505050505050565b6060600160003373ffffffffffffffffffffffffffffffffffffffff1673ffffffffffffffffffffffffffffffffffffffff168152602001908152602001600020805480602002602001604051908101604052809291908181526020016000905b82821015610d1657838290600052602060002090600202016040518060400160405290816000820160009054906101000a900460ff166007811115610cee57fe5b6007811115610cf957fe5b815260200160018201548152505081526020019060010190610cad565b50505050905090565b600080610d2a6112ac565b9050610d3f818461126290919063ffffffff16565b915050919050565b610d4f612523565b6000610d5961111e565b11610d99576040517f08c379a0000000000000000000000000000000000000000000000000000000008152600401610d9090612fb1565b60405180910390fd5b6000610da48361150d565b90506000600160003373ffffffffffffffffffffffffffffffffffffffff1673ffffffffffffffffffffffffffffffffffffffff168152602001908152602001600020905060005b826000015151811015610e6c5782600001518181518110610e0957fe5b6020026020010151828281548110610e1d57fe5b906000526020600020906002020160008201518160000160006101000a81548160ff02191690836007811115610e4f57fe5b021790555060208201518160010155905050600181019050610dec565b5042600260003373ffffffffffffffffffffffffffffffffffffffff1673ffffffffffffffffffffffffffffffffffffffff1681526020019081526020016000208190555060008060009054906101000a900473ffffffffffffffffffffffffffffffffffffffff1673ffffffffffffffffffffffffffffffffffffffff166370a08231336040518263ffffffff1660e01b8152600401610f0d9190612d62565b60206040518083038186803b158015610f2557600080fd5b505afa158015610f39573d6000803e3d6000fd5b505050506040513d601f19601f82011682018060405250810190610f5d9190612796565b90508083602001511115611019576000610f84828560200151611b5490919063ffffffff16565b905060008054906101000a900473ffffffffffffffffffffffffffffffffffffffff1673ffffffffffffffffffffffffffffffffffffffff166340c10f1933836040518363ffffffff1660e01b8152600401610fe1929190612d7d565b600060405180830381600087803b158015610ffb57600080fd5b505af115801561100f573d6000803e3d6000fd5b50505050506110d0565b80836020015110156110cf57600061103e846020015183611b5490919063ffffffff16565b905060008054906101000a900473ffffffffffffffffffffffffffffffffffffffff1673ffffffffffffffffffffffffffffffffffffffff16639dc29fac33836040518363ffffffff1660e01b815260040161109b929190612d7d565b600060405180830381600087803b1580156110b557600080fd5b505af11580156110c9573d6000803e3d6000fd5b50505050505b5b3373ffffffffffffffffffffffffffffffffffffffff167fbe35fe23c13a419d565edccb8c8bdedc160c5b9a82873e431b545080d6f3c68860405160405180910390a2829350505050919050565b6000600260003373ffffffffffffffffffffffffffffffffffffffff1673ffffffffffffffffffffffffffffffffffffffff16815260200190815260200160002054905090565b60008060008054906101000a900473ffffffffffffffffffffffffffffffffffffffff1673ffffffffffffffffffffffffffffffffffffffff1663313ce5676040518163ffffffff1660e01b815260040160206040518083038186803b1580156111ce57600080fd5b505afa1580156111e2573d6000803e3d6000fd5b505050506040513d601f19601f8201168201806040525081019061120691906127bf565b60ff169050600583116112225780600a0a60010291505061125d565b600883116112395780600a0a60320291505061125d565b600b83116112515780600a0a6101f40291505061125d565b80600a0a6109c4029150505b919050565b60006112a483836040518060400160405280601a81526020017f536166654d6174683a206469766973696f6e206279207a65726f000000000000815250611b9e565b905092915050565b60008060008054906101000a900473ffffffffffffffffffffffffffffffffffffffff1673ffffffffffffffffffffffffffffffffffffffff1663313ce5676040518163ffffffff1660e01b815260040160206040518083038186803b15801561131557600080fd5b505afa158015611329573d6000803e3d6000fd5b505050506040513d601f19601f8201168201806040525081019061134d91906127bf565b60ff16905060008060009054906101000a900473ffffffffffffffffffffffffffffffffffffffff1673ffffffffffffffffffffffffffffffffffffffff166318160ddd6040518163ffffffff1660e01b815260040160206040518083038186803b1580156113bb57600080fd5b505afa1580156113cf573d6000803e3d6000fd5b505050506040513d601f19601f820116820180604052508101906113f39190612796565b905081600a0a620186a0028110156114105760019250505061150a565b81600a0a6207a1200281101561142b5760059250505061150a565b81600a0a620f42400281101561144657600a9250505061150a565b81600a0a624c4b40028110156114615760329250505061150a565b81600a0a629896800281101561147c5760649250505061150a565b81600a0a6302faf08002811015611499576101f49250505061150a565b81600a0a6305f5e100028110156114b6576103e89250505061150a565b81600a0a631dcd6500028110156114d3576113889250505061150a565b81600a0a633b9aca00028110156114f0576127109250505061150a565b6115056127108261126290919063ffffffff16565b925050505b90565b611515612523565b600061151f61111e565b1161155f576040517f08c379a000000000000000000000000000000000000000000000000000000000815260040161155690612fb1565b60405180910390fd5b6000600160003373ffffffffffffffffffffffffffffffffffffffff1673ffffffffffffffffffffffffffffffffffffffff168152602001908152602001600020805480602002602001604051908101604052809291908181526020016000905b8282101561162957838290600052602060002090600202016040518060400160405290816000820160009054906101000a900460ff16600781111561160157fe5b600781111561160c57fe5b8152602001600182015481525050815260200190600101906115c0565b50505050905060008060009054906101000a900473ffffffffffffffffffffffffffffffffffffffff1673ffffffffffffffffffffffffffffffffffffffff166370a08231336040518263ffffffff1660e01b815260040161168b9190612d62565b60206040518083038186803b1580156116a357600080fd5b505afa1580156116b7573d6000803e3d6000fd5b505050506040513d601f19601f820116820180604052508101906116db9190612796565b905060005b8451811015611b355760008582815181106116f757fe5b60200260200101519050600061171860035442611b5490919063ffffffff16565b90508082606001511015611761576040517f08c379a000000000000000000000000000000000000000000000000000000000815260040161175890612ef1565b60405180910390fd5b61176961111e565b826060015110156117af576040517f08c379a00000000000000000000000000000000000000000000000000000000081526004016117a690612e31565b60405180910390fd5b42826060015111156117f6576040517f08c379a00000000000000000000000000000000000000000000000000000000081526004016117ed90612eb1565b60405180910390fd5b60008311156118615786600184038151811061180e57fe5b60200260200101516060015182606001511015611860576040517f08c379a000000000000000000000000000000000000000000000000000000000815260040161185790612ed1565b60405180910390fd5b5b6000600181111561186e57fe5b8260000151600181111561187e57fe5b141561199a576118918260200151611c64565b855110156118d4576040517f08c379a00000000000000000000000000000000000000000000000000000000081526004016118cb90612f71565b60405180910390fd5b60006118e38360200151611dba565b905060006118f082610d1f565b905080861015611935576040517f08c379a000000000000000000000000000000000000000000000000000000000815260040161192c90612df1565b60405180910390fd5b6119488187611b5490919063ffffffff16565b9550600060405180604001604052808660200151600781111561196757fe5b815260200186606001518152509050808886604001518151811061198757fe5b6020026020010181905250505050611b26565b6001808111156119a657fe5b826000015160018111156119b657fe5b1415611b25576000858360400151815181106119ce57fe5b60200260200101519050600060078111156119e557fe5b816000015160078111156119f557fe5b1415611a36576040517f08c379a0000000000000000000000000000000000000000000000000000000008152600401611a2d90612f91565b60405180910390fd5b6000611a5382602001518560600151611b5490919063ffffffff16565b90506000611a648360000151612012565b905080821015611aa9576040517f08c379a0000000000000000000000000000000000000000000000000000000008152600401611aa090612f31565b60405180910390fd5b6000604051806040016040528060006007811115611ac357fe5b8152602001600081525090508089876040015181518110611ae057fe5b60200260200101819052506000611afa8560000151612180565b90506000611b0782610d1f565b9050611b1c818b6123db90919063ffffffff16565b99505050505050505b5b505080806001019150506116e0565b5060405180604001604052808381526020018281525092505050919050565b6000611b9683836040518060400160405280601e81526020017f536166654d6174683a207375627472616374696f6e206f766572666c6f770000815250612463565b905092915050565b60008083118290611c4a576040517f08c379a00000000000000000000000000000000000000000000000000000000081526004018080602001828103825283818151815260200191508051906020019080838360005b83811015611c0f578082015181840152602081019050611bf4565b50505050905090810190601f168015611c3c5780820380516001836020036101000a031916815260200191505b509250505060405180910390fd5b506000838581611c5657fe5b049050809150509392505050565b600060016007811115611c7357fe5b826007811115611c7f57fe5b1480611ca1575060026007811115611c9357fe5b826007811115611c9f57fe5b145b15611caf5760059050611db5565b60036007811115611cbc57fe5b826007811115611cc857fe5b1480611cea575060046007811115611cdc57fe5b826007811115611ce857fe5b145b15611cf85760089050611db5565b60056007811115611d0557fe5b826007811115611d1157fe5b1415611d2057600b9050611db5565b60066007811115611d2d57fe5b826007811115611d3957fe5b1415611d4857600e9050611db5565b600780811115611d5457fe5b826007811115611d6057fe5b1415611d6f5760119050611db5565b6000611db0576040517f08c379a0000000000000000000000000000000000000000000000000000000008152600401611da790612e51565b60405180910390fd5b606390505b919050565b60008060008054906101000a900473ffffffffffffffffffffffffffffffffffffffff1673ffffffffffffffffffffffffffffffffffffffff1663313ce5676040518163ffffffff1660e01b815260040160206040518083038186803b158015611e2357600080fd5b505afa158015611e37573d6000803e3d6000fd5b505050506040513d601f19601f82011682018060405250810190611e5b91906127bf565b60ff16905060016007811115611e6d57fe5b836007811115611e7957fe5b1415611e9857606481600a0a60010281611e8f57fe5b0491505061200d565b60026007811115611ea557fe5b836007811115611eb157fe5b1415611ed057606481600a0a600a0281611ec757fe5b0491505061200d565b60036007811115611edd57fe5b836007811115611ee957fe5b1415611f0857606481600a0a60280281611eff57fe5b0491505061200d565b60046007811115611f1557fe5b836007811115611f2157fe5b1415611f365780600a0a60010291505061200d565b60056007811115611f4357fe5b836007811115611f4f57fe5b1415611f645780600a0a60040291505061200d565b60066007811115611f7157fe5b836007811115611f7d57fe5b1415611f925780600a0a600a0291505061200d565b600780811115611f9e57fe5b836007811115611faa57fe5b1415611fbf5780600a0a60320291505061200d565b6000612000576040517f08c379a0000000000000000000000000000000000000000000000000000000008152600401611ff790612e51565b60405180910390fd5b80600a0a620186a0029150505b919050565b60006001600781111561202157fe5b82600781111561202d57fe5b141561203c57603c905061217b565b6002600781111561204957fe5b82600781111561205557fe5b14156120655761012c905061217b565b6003600781111561207257fe5b82600781111561207e57fe5b141561208e57610e10905061217b565b6004600781111561209b57fe5b8260078111156120a757fe5b14156120b757613840905061217b565b600560078111156120c457fe5b8260078111156120d057fe5b14156120e057617080905061217b565b600660078111156120ed57fe5b8260078111156120f957fe5b141561210a5762015180905061217b565b60078081111561211657fe5b82600781111561212257fe5b1415612133576203f480905061217b565b6000612174576040517f08c379a000000000000000000000000000000000000000000000000000000000815260040161216b90612e51565b60405180910390fd5b6298967f90505b919050565b60008060008054906101000a900473ffffffffffffffffffffffffffffffffffffffff1673ffffffffffffffffffffffffffffffffffffffff1663313ce5676040518163ffffffff1660e01b815260040160206040518083038186803b1580156121e957600080fd5b505afa1580156121fd573d6000803e3d6000fd5b505050506040513d601f19601f8201168201806040525081019061222191906127bf565b60ff1690506001600781111561223357fe5b83600781111561223f57fe5b141561225e57606481600a0a6002028161225557fe5b049150506123d6565b6002600781111561226b57fe5b83600781111561227757fe5b141561229657606481600a0a6010028161228d57fe5b049150506123d6565b600360078111156122a357fe5b8360078111156122af57fe5b14156122ce57606481600a0a605002816122c557fe5b049150506123d6565b600460078111156122db57fe5b8360078111156122e757fe5b141561230657606481600a0a60b402816122fd57fe5b049150506123d6565b6005600781111561231357fe5b83600781111561231f57fe5b14156123345780600a0a6008029150506123d6565b6006600781111561234157fe5b83600781111561234d57fe5b14156123625780600a0a6010029150506123d6565b60078081111561236e57fe5b83600781111561237a57fe5b141561238f5780600a0a6050029150506123d6565b60006123d0576040517f08c379a00000000000000000000000000000000000000000000000000000000081526004016123c790612e51565b60405180910390fd5b60009150505b919050565b600080828401905083811015612459576040517f08c379a000000000000000000000000000000000000000000000000000000000815260040180806020018281038252601b8152602001807f536166654d6174683a206164646974696f6e206f766572666c6f77000000000081525060200191505060405180910390fd5b8091505092915050565b6000838311158290612510576040517f08c379a00000000000000000000000000000000000000000000000000000000081526004018080602001828103825283818151815260200191508051906020019080838360005b838110156124d55780820151818401526020810190506124ba565b50505050905090810190601f1680156125025780820380516001836020036101000a031916815260200191505b509250505060405180910390fd5b5060008385039050809150509392505050565b604051806040016040528060608152602001600081525090565b600061255061254b8461303f565b61300e565b9050808382526020820190508285608086028201111561256f57600080fd5b60005b8581101561259f57816125858882612627565b845260208401935060808301925050600181019050612572565b5050509392505050565b6000815190506125b88161319d565b92915050565b6000813590506125cd816131b4565b92915050565b600082601f8301126125e457600080fd5b81356125f484826020860161253d565b91505092915050565b60008135905061260c816131cb565b92915050565b600081359050612621816131db565b92915050565b60006080828403121561263957600080fd5b612643608061300e565b90506000612653848285016125fd565b600083015250602061266784828501612612565b602083015250604061267b8482850161269b565b604083015250606061268f8482850161269b565b60608301525092915050565b6000813590506126aa816131eb565b92915050565b6000815190506126bf816131eb565b92915050565b6000815190506126d481613202565b92915050565b6000602082840312156126ec57600080fd5b60006126fa848285016125a9565b91505092915050565b60006020828403121561271557600080fd5b6000612723848285016125be565b91505092915050565b60006020828403121561273e57600080fd5b600082013567ffffffffffffffff81111561275857600080fd5b612764848285016125d3565b91505092915050565b60006020828403121561277f57600080fd5b600061278d8482850161269b565b91505092915050565b6000602082840312156127a857600080fd5b60006127b6848285016126b0565b91505092915050565b6000602082840312156127d157600080fd5b60006127df848285016126c5565b91505092915050565b60006127f48383612d00565b60408301905092915050565b6128098161313f565b82525050565b612818816130d1565b82525050565b60006128298261307b565b6128338185613093565b935061283e8361306b565b8060005b8381101561286f57815161285688826127e8565b975061286183613086565b925050600181019050612842565b5085935050505092915050565b60006128878261307b565b61289181856130a4565b935061289c8361306b565b8060005b838110156128cd5781516128b488826127e8565b97506128bf83613086565b9250506001810190506128a0565b5085935050505092915050565b6128e381613151565b82525050565b60006128f66012836130c0565b91507f494e53554646494349454e545f46554e445300000000000000000000000000006000830152602082019050919050565b6000612936600b836130c0565b91507f4641524d5f4558495354530000000000000000000000000000000000000000006000830152602082019050919050565b6000612976600d836130c0565b91507f4556454e545f494e5f50415354000000000000000000000000000000000000006000830152602082019050919050565b60006129b6600d836130c0565b91507f494e56414c49445f4652554954000000000000000000000000000000000000006000830152602082019050919050565b60006129f66009836130c0565b91507f4d41585f4c4556454c00000000000000000000000000000000000000000000006000830152602082019050919050565b6000612a36600f836130c0565b91507f444f4e4154494f4e5f4641494c454400000000000000000000000000000000006000830152602082019050919050565b6000612a76600f836130c0565b91507f4556454e545f494e5f46555455524500000000000000000000000000000000006000830152602082019050919050565b6000612ab6600d836130c0565b91507f494e56414c49445f4f52444552000000000000000000000000000000000000006000830152602082019050919050565b6000612af6600d836130c0565b91507f4556454e545f45585049524544000000000000000000000000000000000000006000830152602082019050919050565b6000612b366015836130c0565b91507f494e53554646494349454e545f444f4e4154494f4e00000000000000000000006000830152602082019050919050565b6000612b766000836130b5565b9150600082019050919050565b6000612b906008836130c0565b91507f4e4f545f524950450000000000000000000000000000000000000000000000006000830152602082019050919050565b6000612bd0600f836130c0565b91507f494e56414c49445f4348415249545900000000000000000000000000000000006000830152602082019050919050565b6000612c10600d836130c0565b91507f494e56414c49445f4c4556454c000000000000000000000000000000000000006000830152602082019050919050565b6000612c506008836130c0565b91507f4e4f5f46525549540000000000000000000000000000000000000000000000006000830152602082019050919050565b6000612c906007836130c0565b91507f4e4f5f4641524d000000000000000000000000000000000000000000000000006000830152602082019050919050565b60006040830160008301518482036000860152612ce0828261281e565b9150506020830151612cf56020860182612d2f565b508091505092915050565b604082016000820151612d1660008501826128da565b506020820151612d296020850182612d2f565b50505050565b612d3881613128565b82525050565b612d4781613128565b82525050565b6000612d5882612b69565b9150819050919050565b6000602082019050612d776000830184612800565b92915050565b6000604082019050612d926000830185612800565b612d9f6020830184612d3e565b9392505050565b6000604082019050612dbb600083018561280f565b612dc86020830184612d3e565b9392505050565b60006020820190508181036000830152612de9818461287c565b905092915050565b60006020820190508181036000830152612e0a816128e9565b9050919050565b60006020820190508181036000830152612e2a81612929565b9050919050565b60006020820190508181036000830152612e4a81612969565b9050919050565b60006020820190508181036000830152612e6a816129a9565b9050919050565b60006020820190508181036000830152612e8a816129e9565b9050919050565b60006020820190508181036000830152612eaa81612a29565b9050919050565b60006020820190508181036000830152612eca81612a69565b9050919050565b60006020820190508181036000830152612eea81612aa9565b9050919050565b60006020820190508181036000830152612f0a81612ae9565b9050919050565b60006020820190508181036000830152612f2a81612b29565b9050919050565b60006020820190508181036000830152612f4a81612b83565b9050919050565b60006020820190508181036000830152612f6a81612bc3565b9050919050565b60006020820190508181036000830152612f8a81612c03565b9050919050565b60006020820190508181036000830152612faa81612c43565b9050919050565b60006020820190508181036000830152612fca81612c83565b9050919050565b60006020820190508181036000830152612feb8184612cc3565b905092915050565b60006020820190506130086000830184612d3e565b92915050565b6000604051905081810181811067ffffffffffffffff8211171561303557613034613187565b5b8060405250919050565b600067ffffffffffffffff82111561305a57613059613187565b5b602082029050602081019050919050565b6000819050602082019050919050565b600081519050919050565b6000602082019050919050565b600082825260208201905092915050565b600082825260208201905092915050565b600081905092915050565b600082825260208201905092915050565b60006130dc82613108565b9050919050565b60006130ee82613108565b9050919050565b600081905061310382613189565b919050565b600073ffffffffffffffffffffffffffffffffffffffff82169050919050565b6000819050919050565b600060ff82169050919050565b600061314a82613163565b9050919050565b600061315c826130f5565b9050919050565b600061316e82613175565b9050919050565b600061318082613108565b9050919050565bfe5b6008811061319a57613199613187565b5b50565b6131a6816130d1565b81146131b157600080fd5b50565b6131bd816130e3565b81146131c857600080fd5b50565b600281106131d857600080fd5b50565b600881106131e857600080fd5b50565b6131f481613128565b81146131ff57600080fd5b50565b61320b81613132565b811461321657600080fd5b5056fea2646970667358221220f9a3545dee92eab2979068a5ccf801e7035529432daac62a462c7e0308a1bd4064736f6c63430007060033",
  "immutableReferences": {},
  "source": "pragma solidity >=0.6.0 <0.8.0;\r\npragma experimental ABIEncoderV2;\r\n\r\nimport \"@openzeppelin/contracts/math/Math.sol\";\r\n//import \"https://github.com/OpenZeppelin/openzeppelin-contracts/blob/v3.3.0/contracts/math/Math.sol\";\r\n\r\nimport \"./Token.sol\";\r\n\r\ncontract Farm {\r\n    using SafeMath for uint256;\r\n\r\n    Token private token;\r\n\r\n    struct Square {\r\n        Fruit fruit;\r\n        uint createdAt;\r\n    }\r\n\r\n    mapping(address => Square[]) fields;\r\n    mapping(address => uint) syncedAt;\r\n\r\n    constructor(Token _token) public {\r\n        token = _token;\r\n    }\r\n\r\n    event FarmCreated(address indexed _address);\r\n    event FarmSynced(address indexed _address);\r\n\r\n    // Function to receive Ether. msg.data must be empty\r\n    receive() external payable {}\r\n\r\n    function createFarm(address payable _charity) public payable {\r\n        require(syncedAt[msg.sender] == 0, \"FARM_EXISTS\");\r\n\r\n        uint decimals = token.decimals();\r\n\r\n        require(\r\n            // Donation must be at least $0.05 to play\r\n            msg.value >= 5 * 10**decimals / 100,\r\n            \"INSUFFICIENT_DONATION\"\r\n        );\r\n\r\n        require(\r\n            // The Water Project - double check\r\n            _charity == address(0x276cA95DBbB0F1bEb6919317AB03c885FC10ee6E)\r\n            // Heifer\r\n            || _charity == address(0xD3F81260a44A1df7A7269CF66Abd9c7e4f8CdcD1)\r\n            // Cool Earth\r\n            || _charity == address(0x3c8cB169281196737c493AfFA8F49a9d823bB9c5),\r\n            \"INVALID_CHARITY\"\r\n        );\r\n\r\n\r\n        Square[] storage land = fields[msg.sender];\r\n        Square memory empty = Square({\r\n            fruit: Fruit.None,\r\n            createdAt: 0\r\n        });\r\n        Square memory sunflower = Square({\r\n            fruit: Fruit.Sunflower,\r\n            createdAt: 0\r\n        });\r\n\r\n        // Each farmer starts with 5 fields & 3 Sunflowers\r\n        land.push(empty);\r\n        land.push(sunflower);\r\n        land.push(sunflower);\r\n        land.push(sunflower);\r\n        land.push(empty);\r\n\r\n        syncedAt[msg.sender] = block.timestamp;\r\n\r\n        (bool sent, bytes memory data) = _charity.call{value: msg.value}(\"\");\r\n        require(sent, \"DONATION_FAILED\");\r\n\r\n        //Emit an event\r\n        emit FarmCreated(msg.sender);\r\n    }\r\n    \r\n    function lastSyncedAt() private view returns(uint) {\r\n        return syncedAt[msg.sender];\r\n    }\r\n\r\n\r\n    function getLand() public view returns (Square[] memory) {\r\n        return fields[msg.sender];\r\n    }\r\n\r\n    enum Action { Plant, Harvest }\r\n    enum Fruit { None, Sunflower, Potato, Pumpkin, Beetroot, Cauliflower, Parsnip, Radish }\r\n\r\n    struct Event { \r\n        Action action;\r\n        Fruit fruit;\r\n        uint landIndex;\r\n        uint createdAt;\r\n    }\r\n\r\n    struct Farm {\r\n        Square[] land;\r\n        uint balance;\r\n    }\r\n\r\n    function getHarvestSeconds(Fruit _fruit) private pure returns (uint) {\r\n        if (_fruit == Fruit.Sunflower) {\r\n            // 1 minute\r\n            return 1 * 60;\r\n        } else if (_fruit == Fruit.Potato) {\r\n            // 5 minutes\r\n            return 5 * 60;\r\n        } else if (_fruit == Fruit.Pumpkin) {\r\n            // 1 hour\r\n            return 1  * 60 * 60;\r\n        } else if (_fruit == Fruit.Beetroot) {\r\n            // 4 hours\r\n            return 4 * 60 * 60;\r\n        } else if (_fruit == Fruit.Cauliflower) {\r\n            // 8 hours\r\n            return 8 * 60 * 60;\r\n        } else if (_fruit == Fruit.Parsnip) {\r\n            // 1 day\r\n            return 24 * 60 * 60;\r\n        } else if (_fruit == Fruit.Radish) {\r\n            // 3 days\r\n            return 3 * 24 * 60 * 60;\r\n        }\r\n\r\n        require(false, \"INVALID_FRUIT\");\r\n        return 9999999;\r\n    }\r\n\r\n    function getSeedPrice(Fruit _fruit) private view returns (uint price) {\r\n        uint decimals = token.decimals();\r\n\r\n        if (_fruit == Fruit.Sunflower) {\r\n            //$0.01\r\n            return 1 * 10**decimals / 100;\r\n        } else if (_fruit == Fruit.Potato) {\r\n            // $0.10\r\n            return 10 * 10**decimals / 100;\r\n        } else if (_fruit == Fruit.Pumpkin) {\r\n            // $0.40\r\n            return 40 * 10**decimals / 100;\r\n        } else if (_fruit == Fruit.Beetroot) {\r\n            // $1\r\n            return 1 * 10**decimals;\r\n        } else if (_fruit == Fruit.Cauliflower) {\r\n            // $4\r\n            return 4 * 10**decimals;\r\n        } else if (_fruit == Fruit.Parsnip) {\r\n            // $10\r\n            return 10 * 10**decimals;\r\n        } else if (_fruit == Fruit.Radish) {\r\n            // $50\r\n            return 50 * 10**decimals;\r\n        }\r\n\r\n        require(false, \"INVALID_FRUIT\");\r\n\r\n        return 100000 * 10**decimals;\r\n    }\r\n\r\n    function getFruitPrice(Fruit _fruit) private view returns (uint price) {\r\n        uint decimals = token.decimals();\r\n\r\n        if (_fruit == Fruit.Sunflower) {\r\n            // $0.02\r\n            return 2 * 10**decimals / 100;\r\n        } else if (_fruit == Fruit.Potato) {\r\n            // $0.16\r\n            return 16 * 10**decimals / 100;\r\n        } else if (_fruit == Fruit.Pumpkin) {\r\n            // $0.80\r\n            return 80 * 10**decimals / 100;\r\n        } else if (_fruit == Fruit.Beetroot) {\r\n            // $1.8\r\n            return 180 * 10**decimals / 100;\r\n        } else if (_fruit == Fruit.Cauliflower) {\r\n            // $8\r\n            return 8 * 10**decimals;\r\n        } else if (_fruit == Fruit.Parsnip) {\r\n            // $16\r\n            return 16 * 10**decimals;\r\n        } else if (_fruit == Fruit.Radish) {\r\n            // $80\r\n            return 80 * 10**decimals;\r\n        }\r\n\r\n        require(false, \"INVALID_FRUIT\");\r\n\r\n        return 0;\r\n    }\r\n    \r\n    function requiredLandSize(Fruit _fruit) private pure returns (uint size) {\r\n        if (_fruit == Fruit.Sunflower || _fruit == Fruit.Potato) {\r\n            return 5;\r\n        } else if (_fruit == Fruit.Pumpkin || _fruit == Fruit.Beetroot) {\r\n            return 8;\r\n        } else if (_fruit == Fruit.Cauliflower) {\r\n            return 11;\r\n        } else if (_fruit == Fruit.Parsnip) {\r\n            return 14;\r\n        } else if (_fruit == Fruit.Radish) {\r\n            return 17;\r\n        }\r\n\r\n        require(false, \"INVALID_FRUIT\");\r\n\r\n        return 99;\r\n    }\r\n    \r\n       \r\n    function getLandPrice(uint landSize) private view returns (uint price) {\r\n        uint decimals = token.decimals();\r\n        if (landSize <= 5) {\r\n            // $1\r\n            return 1 * 10**decimals;\r\n        } else if (landSize <= 8) {\r\n            // 50\r\n            return 50 * 10**decimals;\r\n        } else if (landSize <= 11) {\r\n            // $500\r\n            return 500 * 10**decimals;\r\n        }\r\n        \r\n        // $2500\r\n        return 2500 * 10**decimals;\r\n    }\r\n\r\n    modifier hasFarm {\r\n        require(lastSyncedAt() > 0, \"NO_FARM\");\r\n        _;\r\n    }\r\n     \r\n    uint private THIRTY_MINUTES = 30 * 60;\r\n\r\n    function buildFarm(Event[] memory _events) private view hasFarm returns (Farm memory currentFarm) {\r\n        Square[] memory land = fields[msg.sender];\r\n        uint balance = token.balanceOf(msg.sender);\r\n        \r\n        for (uint index = 0; index < _events.length; index++) {\r\n            Event memory farmEvent = _events[index];\r\n\r\n            uint thirtyMinutesAgo = block.timestamp.sub(THIRTY_MINUTES); \r\n            require(farmEvent.createdAt >= thirtyMinutesAgo, \"EVENT_EXPIRED\");\r\n            require(farmEvent.createdAt >= lastSyncedAt(), \"EVENT_IN_PAST\");\r\n            require(farmEvent.createdAt <= block.timestamp, \"EVENT_IN_FUTURE\");\r\n\r\n            if (index > 0) {\r\n                require(farmEvent.createdAt >= _events[index - 1].createdAt, \"INVALID_ORDER\");\r\n            }\r\n\r\n            if (farmEvent.action == Action.Plant) {\r\n                require(land.length >= requiredLandSize(farmEvent.fruit), \"INVALID_LEVEL\");\r\n                \r\n                uint price = getSeedPrice(farmEvent.fruit);\r\n                uint fmcPrice = getMarketPrice(price);\r\n                require(balance >= fmcPrice, \"INSUFFICIENT_FUNDS\");\r\n\r\n                balance = balance.sub(fmcPrice);\r\n\r\n                Square memory plantedSeed = Square({\r\n                    fruit: farmEvent.fruit,\r\n                    createdAt: farmEvent.createdAt\r\n                });\r\n                land[farmEvent.landIndex] = plantedSeed;\r\n            } else if (farmEvent.action == Action.Harvest) {\r\n                Square memory square = land[farmEvent.landIndex];\r\n                require(square.fruit != Fruit.None, \"NO_FRUIT\");\r\n\r\n                uint duration = farmEvent.createdAt.sub(square.createdAt);\r\n                uint secondsToHarvest = getHarvestSeconds(square.fruit);\r\n                require(duration >= secondsToHarvest, \"NOT_RIPE\");\r\n\r\n                // Clear the land\r\n                Square memory emptyLand = Square({\r\n                    fruit: Fruit.None,\r\n                    createdAt: 0\r\n                });\r\n                land[farmEvent.landIndex] = emptyLand;\r\n\r\n                uint price = getFruitPrice(square.fruit);\r\n                uint fmcPrice = getMarketPrice(price);\r\n\r\n                balance = balance.add(fmcPrice);\r\n            }\r\n        }\r\n\r\n        return Farm({\r\n            land: land,\r\n            balance: balance\r\n        });\r\n    }\r\n\r\n\r\n    function sync(Event[] memory _events) public hasFarm returns (Farm memory) {\r\n        Farm memory farm = buildFarm(_events);\r\n\r\n        // Update the land\r\n        Square[] storage land = fields[msg.sender];\r\n        for (uint i=0; i < farm.land.length; i += 1) {\r\n            land[i] = farm.land[i];\r\n        }\r\n        \r\n        syncedAt[msg.sender] = block.timestamp;\r\n        \r\n        uint balance = token.balanceOf(msg.sender);\r\n        // Update the balance - mint or burn\r\n        if (farm.balance > balance) {\r\n            uint profit = farm.balance.sub(balance);\r\n            token.mint(msg.sender, profit);\r\n        } else if (farm.balance < balance) {\r\n            uint loss = balance.sub(farm.balance);\r\n            token.burn(msg.sender, loss);\r\n        }\r\n\r\n        emit FarmSynced(msg.sender);\r\n\r\n        return farm;\r\n    }\r\n\r\n    function levelUp() public hasFarm {\r\n        require(fields[msg.sender].length <= 17, \"MAX_LEVEL\");\r\n\r\n        \r\n        Square[] storage land = fields[msg.sender];\r\n\r\n        uint price = getLandPrice(land.length);\r\n        uint fmcPrice = getMarketPrice(price);\r\n        uint balance = token.balanceOf(msg.sender);\r\n\r\n        require(balance >= fmcPrice, \"INSUFFICIENT_FUNDS\");\r\n        \r\n        token.burn(msg.sender, fmcPrice);\r\n\r\n        // Land tax - An additional 1% of profit goes to maintainers of Sunflower Farmers\r\n        uint commission = fmcPrice.div(100);\r\n        token.mint(token.getOwner(), commission);\r\n        \r\n        // Add 3 sunflower fields in the new fields\r\n        Square memory sunflower = Square({\r\n            fruit: Fruit.Sunflower,\r\n            // Make them immediately harvestable in case they spent all their tokens\r\n            createdAt: 0\r\n        });\r\n\r\n        for (uint index = 0; index < 3; index++) {\r\n            land.push(sunflower);\r\n        }\r\n\r\n        emit FarmSynced(msg.sender);\r\n    }\r\n\r\n    // How many tokens do you get per dollar\r\n    // Algorithm is totalSupply / 10000 but we do this in gradual steps to avoid widly flucating prices between plant & harvest\r\n    function getMarketRate() private view returns (uint conversion) {\r\n        uint decimals = token.decimals();\r\n        uint totalSupply = token.totalSupply();\r\n\r\n        // Less than 100, 000 tokens\r\n        if (totalSupply < (100000 * 10**decimals)) {\r\n            // 1 Farm Dollar gets you 1 FMC token\r\n            return 1;\r\n        }\r\n\r\n        // Less than 500, 000 tokens\r\n        if (totalSupply < (500000 * 10**decimals)) {\r\n            return 5;\r\n        }\r\n\r\n        // Less than 1, 000, 000 tokens\r\n        if (totalSupply < (1000000 * 10**decimals)) {\r\n            return 10;\r\n        }\r\n\r\n        // Less than 5, 000, 000 tokens\r\n        if (totalSupply < (5000000 * 10**decimals)) {\r\n            return 50;\r\n        }\r\n\r\n        // Less than 10, 000, 000 tokens\r\n        if (totalSupply < (10000000 * 10**decimals)) {\r\n            return 100;\r\n        }\r\n\r\n        // Less than 50, 000, 000 tokens\r\n        if (totalSupply < (50000000 * 10**decimals)) {\r\n            return 500;\r\n        }\r\n\r\n        // Less than 100, 000, 000 tokens\r\n        if (totalSupply < (100000000 * 10**decimals)) {\r\n            return 1000;\r\n        }\r\n\r\n        // Less than 500, 000, 000 tokens\r\n        if (totalSupply < (500000000 * 10**decimals)) {\r\n            return 5000;\r\n        }\r\n\r\n        // Less than 1, 000, 000, 000 tokens\r\n        if (totalSupply < (1000000000 * 10**decimals)) {\r\n            return 10000;\r\n        }\r\n\r\n        // 1 Farm Dollar gets you a 0.00001 of a token - Linear growth from here\r\n        return totalSupply.div(10000);\r\n    }\r\n\r\n    function getMarketPrice(uint price) public view returns (uint conversion) {\r\n        uint marketRate = getMarketRate();\r\n\r\n        return price.div(marketRate);\r\n    }\r\n}\r\n",
  "sourcePath": "C:\\Users\\Guilherme\\Desktop\\sunflower-land-2-dynamic-pricing\\src\\contracts\\Farm.sol",
  "compiler": {
    "name": "solc",
    "version": "0.7.6+commit.7338295f.Emscripten.clang"
  },
  "schemaVersion": "3.4.4",
  "updatedAt": "2022-01-26T19:43:19.501Z",
  "networkType": "ethereum",
  "devdoc": {
    "kind": "dev",
    "methods": {},
    "version": 1
  },
  "userdoc": {
    "kind": "user",
    "methods": {},
    "version": 1
  }
}